{
  "transactions": [
    {
      "hash": "0x294eb25720958fcb3b59342e7714e7708daabb2eba829a0b1e17ea44f8b80475",
      "transactionType": "CALL",
      "contractName": null,
      "contractAddress": "0x969589b618e9b75f4181d3a262420a384df90ad2",
      "function": "registerAdapter(uint64,address)",
      "arguments": [
        "16015286601757825753",
        "0x68519cd40e0BA62EE6ABc9B5FE02e76e376C8A98"
      ],
      "transaction": {
        "from": "0xc7e12fc726188a91e16e7d4483c007fde59a7905",
        "to": "0x969589b618e9b75f4181d3a262420a384df90ad2",
        "gas": "0xfb20",
        "value": "0x0",
        "input": "0xd26ecbfc000000000000000000000000000000000000000000000000de41ba4fc9d91ad900000000000000000000000068519cd40e0ba62ee6abc9b5fe02e76e376c8a98",
        "nonce": "0x3f",
        "chainId": "0x4cef52"
      },
      "additionalContracts": [],
      "isFixedGasLimit": false
    },
    {
      "hash": "0x867b71be9f41f9ebf222625ab317c11ff95ad9291a86780d7473638068c8f778",
      "transactionType": "CALL",
      "contractName": null,
      "contractAddress": "0x96c990fac3ba9329aedbcf423c78e7880b6ab50e",
      "function": "setTrustedAdapter(uint64,address)",
      "arguments": [
        "16015286601757825753",
        "0x68519cd40e0BA62EE6ABc9B5FE02e76e376C8A98"
      ],
      "transaction": {
        "from": "0xc7e12fc726188a91e16e7d4483c007fde59a7905",
        "to": "0x96c990fac3ba9329aedbcf423c78e7880b6ab50e",
        "gas": "0x117be",
        "value": "0x0",
        "input": "0xd8ffbc70000000000000000000000000000000000000000000000000de41ba4fc9d91ad900000000000000000000000068519cd40e0ba62ee6abc9b5fe02e76e376c8a98",
        "nonce": "0x40",
        "chainId": "0x4cef52"
      },
      "additionalContracts": [],
      "isFixedGasLimit": false
    }
  ],
  "receipts": [
    {
      "status": "0x1",
      "cumulativeGasUsed": "0xb5d0",
      "logs": [],
      "logsBloom": "0x00000000000000000000000000000000000000000000000000000000000000000000000000000000000000000000000000000000000000000000000000000000000000000000000000000000000000000000000000000000000000000000000000000000000000000000000000000000000000000000000000000000000000000000000000000000000000000000000000000000000000000000000000000000000000000000000000000000000000000000000000000000000000000000000000000000000000000000000000000000000000000000000000000000000000000000000000000000000000000000000000000000000000000000000000000000",
      "type": "0x0",
      "transactionHash": "0x294eb25720958fcb3b59342e7714e7708daabb2eba829a0b1e17ea44f8b80475",
      "transactionIndex": "0x0",
      "blockHash": "0x726370bc2c62c788e2eb481c8f6713ffc3f06c4e09f01958610f9c71e134887a",
      "blockNumber": "0x21d6e0b",
      "gasUsed": "0xb5d0",
      "effectiveGasPrice": "0x1bf08eb000",
      "from": "0xc7e12fc726188a91e16e7d4483c007fde59a7905",
      "to": "0x969589b618e9b75f4181d3a262420a384df90ad2",
      "contractAddress": null
    },
    {
      "status": "0x1",
      "cumulativeGasUsed": "0x18058",
      "logs": [],
      "logsBloom": "0x00000000000000000000000000000000000000000000000000000000000000000000000000000000000000000000000000000000000000000000000000000000000000000000000000000000000000000000000000000000000000000000000000000000000000000000000000000000000000000000000000000000000000000000000000000000000000000000000000000000000000000000000000000000000000000000000000000000000000000000000000000000000000000000000000000000000000000000000000000000000000000000000000000000000000000000000000000000000000000000000000000000000000000000000000000000",
      "type": "0x0",
      "transactionHash": "0x867b71be9f41f9ebf222625ab317c11ff95ad9291a86780d7473638068c8f778",
      "transactionIndex": "0x1",
      "blockHash": "0x726370bc2c62c788e2eb481c8f6713ffc3f06c4e09f01958610f9c71e134887a",
      "blockNumber": "0x21d6e0b",
      "gasUsed": "0xca88",
      "effectiveGasPrice": "0x1bf08eb000",
      "from": "0xc7e12fc726188a91e16e7d4483c007fde59a7905",
      "to": "0x96c990fac3ba9329aedbcf423c78e7880b6ab50e",
      "contractAddress": null
    }
  ],
  "libraries": [],
  "pending": [],
  "returns": {},
  "timestamp": 1775330110275,
  "chain": 5042002,
  "commit": "d7b8af9"
}